:040000000201E132E6
:01000B0032C2
:0100130032BA
:01001B0032B2
:0100230032AA
:01002B0032A2
:01003300329A
:01003B003292
:01004300328A
:01004B003282
:01005300327A
:01005B003272
:01006300326A
:01006B003262
:01007300325A
:01007B003252
:01008300324A
:01008B003242
:01009300323A
:01009B003232
:0100A300322A
:0100AB003222
:0100B300321A
:0100BB003212
:0100C300320A
:0100CB003202
:0100D30032FA
:0100DB0032F2
:0100E30032EA
:0100EB0032E2
:0100F30032DA
:0100FB0032D2
:0101030032C9
:01010B0032C1
:0101130032B9
:01011B0032B1
:0101230032A9
:01012B0032A1
:010133003299
:01013B003291
:010143003289
:01014B003281
:010153003279
:01015B003271
:010163003269
:01016B003261
:010173003259
:01017B003251
:010183003249
:01018B003241
:010193003239
:01019B003231
:0101A3003229
:0101AB003221
:0101B3003219
:0101BB003211
:0101C3003209
:0101CB003201
:0101D30032F9
:0301DB0002026DB0
:03026A000201DEB0
:0301DE0002038297
:20026D00C0E0C000C0D075D000E5EC30E30C7823E64401F67823E64402F675EC00D0D0D002
:20028D0000D0E0329000017480F09000027404F090000374AAF012147FAE82AF83900004C4
:2002AD00EEF0EFA3F0900007E4F0A3F0A3F0A3F012133C756B64756C0012154AAE829000F6
:2002CD0006EEF090000B740BF090000C7405F090000D7415F090000E7410F090000F7434AF
:2002ED00F0900010740FF09000117402F0900012740DF0756B1390000175F00012143BAFDB
:20030D0082900013EFF0753A1390000175F000020AA290001AE0FCA3E0FDA3E0FEA3E0FF5D
:20032D000CBC00090DBD00050EBE00010F90001AECF0EDA3F0EEA3F0EFA3F0A293E433904F
:20034D00001EF012133C756B64756C0012154AAE82900019EEF0756B0C90001475F00012CD
:20036D00143BAF8290001FEFF0753A0C90001475F000020AA2A2AF9200C2AF75C7AA75C77A
:20038D005553A37FA20092AF75E10075B10075B20075B30075B40075AC0075AD0043B3086E
:2003AD0053B4F743E92143EA0843EB08439B02D2AF1211891209BC120D1F90002A75F00039
:2003CD00120C2B75462F754700754800758201120C6D120A8790000A1206A41202919000B3
:2003ED00147480F09000157404F09000167422F012147FAE82AF83900017EEF0EFA3F09021
:20040D00001AE4F0A3F0A3F0A3F012133C756B64756C0012154AAE82AF83900019EEF01236
:20042D000A7553F3BF75E100A2AF9200C2AF75C7AA75C75553A37FA20092AF75EC00438787
:0C044D000243F340120A8712031F80D301
:0A196400C7C7C7C7C7E7E7E7E7E713
:20045900AC82AD83AEF0FF53B1BF53B2BF53B17F53B27F759850438920438780438E105333
:20047900C4DF8C6B8D6C8E6D8F6E90424075F00FE4121644AC820CC3E49CF58DD28ED29938
:2004990022AC82AD83AEF0FF53B1BF53B2BF53B17F53B27F75985043878053C4F843C420BB
:2004B9008C6B8D6C8E6D8F6E90424075F00FE4121644AC82AD83AEF0FF74FFC39C74FF9D88
:2004D900F9E49EE49F89C674FFC39CFC8CC543C408D299223098FD859982C29822AF82C227
:2004F900998F993099FD22AC82AD83AEF0FF53B1FB53B2FB53B3BF53B4BF75F85075C408B7
:2005190053C4DF8C6B8D6C8E6D8F6E90424075F00FE4121644AC82AD83AEF0FF74FFC39C41
:2005390074FF9DF9E49EE49F89C674FFC39CFC8CC543C4082230F8FD859A82C2F822AF8222
:08055900C2F98F9A30F9FD226E
:20056100AC82AD83AEF0FF538EF7438901D28CEC4D4E4F601A758A7E758CFF108D0280FB95
:200581001CBCFF091DBDFF051EBEFF011F80E0C28C22AC82AD83AEF0FF538EF7438901D25F
:2005A1008CEC4D4E4F601A758ACA758CFA108D0280FB1CBCFF091DBDFF051EBEFF011F8047
:2005C100E0C28C22AC82AD83AEF0FF538EEF438910D28EEC4D4E4F601A758BEA758DCB10AC
:2005E1008F0280FB1CBCFF091DBDFF051EBEFF011F80E0C28E22AC82AD83AEF0FF53C9BF8D
:2006010053C9DF43C910D2CAEC4D4E4F601A75CC3075CDF810CF0280FB1CBCFF091DBDFF16
:20062100051EBEFF011F80E0C2CA22AC82AD83AEF0FF75C40743C408EC4D4E4F602575C5CC
:200641002C75C6CFAAC45302107B00BA10F6BB00F353C4EF1CBCFF091DBDFF051EBEFF0107
:200661001F80D553C4F722AC82AD83AEF0FF75C40743C408EC4D4E4F602575C5D875C6FFE4
:20068100AAC45302107B00BA10F6BB00F353C4EF1CBCFF091DBDFF051EBEFF011F80D55336
:2006A100C4F722AE82AF838E048F051EBEFF011FEC4D600F7D068D041DEC60EB00000000C9
:0406C1000080F322A0
:2006C500AF82C3EF956B50038F8222856B8222E58224FF929122E58224FF929222AF8275D3
:2006E5008200C0071206D4D007741F5FF5821211DEAF82AC2FAD30AE31AB328B021BEA60E8
:200705002D7582FFC007C006C005C004C0031211DEAA82D003D004D005D006D0078C828DE7
:20072500838EF0EA121744A3AC82AD8380CD758201C0071206D4D0078F8222AF8275820031
:20074500C0071206D4D007741F5FF5821211DE7582FF1211DEAF82758201C0071206D4D0FD
:20076500078F8222AF82758200C0071206D4D007741F5F4420F5821211DEAF82AC33AD34C9
:20078500AE35AB368B021BEA602A8C828D838EF0121889FAA3AC82AD838A82C007C006C0D1
:2007A50005C004C0031211DED003D004D005D006D00780D0758201C0071206D4D0078F829B
:2007C50022AF82758200C0071206D4D007741F5F4420F5821211DEAF82853782C007121119
:2007E500DE7582011206D4D0078F8222AD82AE83AFF085266B853882C007C006C00512066A
:20080500C5AC82D005D006D007E52860067A007B008008E526C39CF9FA7B00758200C007D8
:20082500C006C005C004C0021206D47582A01211DEAB82D002D004D005D006D0078C011C20
:20084500E9602E8D828E838FF0121889F9A3AD82AE838982C007C006C005C004C003C00228
:200865001211DED002D003D004D005D006D00780CC8A078F061FEE6010758200C007C00307
:200885001211DED003D00780EA758201C0031206D4D0038B8222AD82AE83AFF085266B85FB
:2008A5003982C007C006C0051206C5AC82D005D006D007E52860067A007B008008E526C3DB
:2008C5009CF9FA7B00758200C007C006C005C004C0021206D47582611211DEAB82D002D026
:2008E50004D005D006D0078C011CE960317582FFC007C006C005C004C003C0021211DEA90F
:2009050082D002D003D004D005D006D0078D828E838FF0E9121744A3AD82AE8380C98A0783
:200925008F061FEE60107582FFC007C0031211DED003D00780EA758201C0031206D4D00391
:200945008B82227582001206D47582E21211DEAF82758201C0071206D4D0078F82227582C9
:20096500001206D47582E11211DEAF82758201C0071206D4D0078F82227582001206D4756F
:2009850082FF1211DEAF82758201C0071206D4D0078F8222756B7F1206C585823775820574
:2009A5001207C6758205020740756B201206C585822622852682227582001206DB758201B1
:2009C5001206D49001F4E4F5F012066875374F7582041207C6758202120E9B758202120EB6
:2009E500FAE5826003752501758202120EFA758202120F7175370075821C1207C67537703B
:200A05007582071207C675823C120999120948120963752401752500752620752700752804
:200A25000022758200120740E5824403F5377582001207C67537707582071207C675332AC4
:200A450075340075354075360575820A1207691209481209637582011206DB900082E4F514
:200A6500F00206687582001206DB120963020948758200120740E58254FDF5377582000229
:200A850007C6758200120740E5824402F5377582001207C6900064E4F5F0020668853A3E5B
:200AA500120AF8752F3B7530007531407532017582081206E2E582543060E875403D754137
:200AC5000075424075432775440075454090003C75F040120BDDAF3CE527600AC007120BD8
:200AE50048858229D007C007120A75120963D0078F8222AD82AE83AFF0758200C007C0063F
:200B0500C005120740E582440254FEF5377582001207C690000FE4F5F0120668D005D0061E
:200B2500D007853E388D828E838FF01207F17582011206DB900002E4F5F012066875820078
:200B45000206DB7582001206D47582601211DE7582FF1211DEAF82758201C0071206D4D0CF
:200B6500078F822290000075F000020B72AD82AE83AFF0C007C006C00512097EAC82D005D5
:200B8500D006D00774405CFBFA6037ED4E6011ECC313FB5303078D828E838FF0EB1217444A
:200BA500753740758207C004C0021207C6D002D004EC30E50D753720758207C0021207C6C2
:200BC500D0028A8222853F3912089B758217120740E5825401F58222AD82AE83AFF07537F7
:200BE50070758207C007C006C0051207C6AC82D005D006D00774205C8D828E838FF01217E9
:200C050044AD40AE41AF4274105C8D828E838FF0121744AD43AE44AF455304408D828E8345
:200C25008FF0EC021744AD82AE83AFF08D338E348F3575360575820AC007C006C005120786
:200C450069D005D006D0078D338E348F35753605758210120769756B208526821206C58596
:200C650082377582110207C6E582FF701C85466B85476C85486D756E05756F0090002A754A
:200C8500F040C0071216A9D007EF24F9500122BF0200501DEF90195293FE8546338547348A
:200CA5008548357536058E82C007120769D007801BEF90195293FE85463385473485483537
:200CC5007536018E82C007120769D007EF90195893FE8526378E82C0071207C6758202120F
:200CE5000740AE82D007EF90195E93FF8FF005F07401800225E0D5F0FB4EF5377582020274
:200D050007C67582001206D47582501211DE7582731211DE7582010206D475821D1207402A
:200D2500E5824404F53775821D1207C675821D120740E5827015120D0775821D120740E50F
:200D4500824404F53775821D1207C675821C120740E582443FF53775821C1207C675280193
:200D65002275821D120740E5824406F53775821D1207C675821D120740E5827015120D0790
:200D850075821D120740E5824406F53775821D1207C675821C120740E5824403F5377582D4
:200DA5001C0207C6AF82AC49AD4AAE4B758200C007C006C005C0041206D4D004D005D006B5
:200DC500D00774075F44A8F582C006C005C0041211DE756B20854C821206C5AF82D004D0A5
:200DE50005D0068F031FEB60268C828D838EF0121889FBA3AC82AD838B82C007C006C00547
:200E0500C0041211DED004D005D006D00780D47582010206D4852782752700228525822250
:200E2500E582600975373F7582010207C67537007582010207C6E582FF24F9403E758201BF
:200E4500C007120740AE82D007E54D60158F058DF005F07401800225E0D5F0FBFDEE4205CB
:200E650080118FF005F07401800225E0D5F0FBF4FF5EFD8D377582010207C622758209129F
:200E85000740E5825401F58222758209120740E5825401F58222AF82758206C007120740B5
:200EA500E582D00754F9FEBF03054306068019BF02054306048011BF01054306028009EFC9
:200EC5006006BF04034306068E377582060207C6758206120740E5825406FFBF06047E03A1
:200EE5008010BF04047E028009BF02047E0180027E008E8222AF827E00758206C007C006DE
:200F0500120740AD82D006D0077524005305D7BF0208752400430520800EBF010875240115
:200F250043050880037524008D37758206C006C0051207C6758206120740AF82D005D006E3
:200F4500EFB505047E0180037524008E8222758206120740E5825428FFBF20047E028009EE
:200F6500BF08047E0180027E008E8222AF82758200C007120740E582D00754F3FEEF600EC8
:200F8500BF0105430608800674084E4404FE8E377582000207C67F00758200C0071207407F
:200FA500E582D007540CFE30E30AEE30E2047F0280027F018F8222758200120740E58254AE
:1E0FC500F7F5377582000207C6E582540FC454F0FFE54E540F4FF5377582040207C679
:121952000A0B0C0D0E0F111213141516000102030405B4
:200FE300AE82AF838F828E832230C315E5BD7002D2C4C2C330C3F2C2C6D2C6C2C3C2C6807F
:20100300E822AF82D2C5C2C330C3FD7408B5BD028003020FECC2C575BC80C2C330C3FDAEBB
:20102300BDBE18028003020FEC8FBCC2C330C3FDAEBDBE28028003020FECAD508DBCC2C33A
:2010430030C3FDAEBDBE28028003020FEC8FBCC2C330C3FDAFBDBF28028003020FECC2C3B0
:20106300D2C420C4FD221211759000641206A4754F00755010758202021005AD82AE83AFD4
:20108300F0D2C5C2C330C3FD7408B5BD028003020FECC2C575BC80C2C330C3FDACBDBC18F7
:2010A300028003020FEC75BC00C2C330C3FDACBDBC28028003020FECC2C3D2C420C4FD90AA
:2010C3001F40C007C006C0051206A4D005D006D007D2C5C2C330C3FD7408B5BD028003029D
:2010E3000FECC2C575BC81C2C330C3FDACBDBC40028003020FEC7C00D2C2C2C330C3FD7464
:2011030050B5BD028003020FECEC2454F8A6BC0CBC040040E3C2C3D2C420C4FD85548285FF
:201123005583C007C006C005120FE3AB82AC83D005D006D0078D828E838FF0EB121744A306
:20114300EC121744AD51AE52AF53855682855783C007C006C005120FE3AB82AC83D005D020
:1211630006D0078D828E838FF0EB121744A3EC021744BA
:1411750043B30843B40843B31043B410C2C075BEAAD2C62243
:2011890053F3FD53F3FE43F40853F37F43F31053F3DF53F3F753F3FB43F3402222AD82AE3B
:2011A90083AFF07C00C3EC95585029EC2DF9E43EFA8F0389828A838BF0121889F582C0072F
:2011C900C006C005C0041211DED004D005D006D0070C80D1228582F5E5F430E7FB85F582FE
:2011E90053F47F22AD82AE83AFF07C00C3EC95595039EC2DF9E43EFA8F03758200C007C01F
:2012090006C005C004C003C002C0011211DEA882D001D002D003D004D005D006D0078982EE
:0C1229008A838BF0E81217440C80C1226D
:20123500A2AF9200C2AF75C7AA75C755439F01A20092AF75A60C75A70075AF04A2AF9200BA
:20125500C2AF75C7AA75C75543A401A20092AFAFAE900028EFF075A60D75A70075AF04A2C4
:20127500AF9200C2AF75C7AA75C75543A401A20092AFE5AE540FFE900029F0A2AF9200C223
:20129500AF75C7AA75C755539FFEA20092AFE4C454F0CFC4CF6FCF54F0CF6FFD7C00EE2F9C
:2012B500FFEC3DFD3395E0FEFC900024EFF0EDA3F0EEA3F0ECA3F08F828D838EF0EC12178B
:2012D50031AC82AD83AEF0FFC004C005C006C00790F00075F07F74451217C6AC82AD83AE9F
:2012F500F0FFE58124FCF581C004C005C006C00790000075F04074451217C6AC82AD83AEEF
:20131500F0FFE58124FCF581900020ECF0EDA3F0EEA3F0EFA3F0227F00C2EFD2EE30EFFD90
:201335000FBF030040F32212123543E80853E8F843E10112132CC2EFD2EE30EFFDAEC3E45B
:20135500C454F0CEC4CE6ECE54F0CE6EFFACC27D00EC2EF582ED3FF58312175FAC82AD834F
:20137500AEF0FFC004C005C006C00790F00075F07F74451217C6AC82AD83AEF0FFE5812414
:20139500FCF581900020E0C0E0A3E0C0E0A3E0C0E0A3E0C0E08C828D838EF0EF121573AC5C
:1613B50082AD83AEF0FFE58124FCF5818C828D838EF0EF02176CC7
:20023A00755A30755B31755C32755D33755E34755F3575603675613775623875633975647B
:10025A0061756562756663756764756865756966F3
:2013CB00E582FFC4540FFE53060FEE245AF98782C0071204F6D00753070FEF245AF987821F
:2013EB001204F67582200204F6AF82A2AF9200C2AF75C7AA75C755439F01A20092AF8FA6CC
:20140B0075A70075AF04A2AF9200C2AF75C7AA75C75543A401A20092AF85AE82A2AF92004F
:20142B00C2AF75C7AA75C755539FFEA20092AF22AD82AE83AFF0756C007B00A96B7A0019C2
:20144B00B9FF011A8B007C00C3E899EC64808AF063F08095F050178D828E838FF012188908
:20146B00FCA3AD82AE83EC256CF56C0B80CDE56CF4F582227E007F007D008D82C007C00638
:20148B00C0051213F4AC828C6A1213CBD005D006D0078E6C8F6D756E00756F00756B01909F
:2014AB00006A75F040C0051214C6AE82AF83D0050DBD0B0040C48E828F8322AD82AE83AFFE
:2014CB00F0AC6BEC60728D828E838FF0121889FBA3AD82AE838B027B008B00EAF93395E0CE
:2014EB00FAFBE8626CE9626DEA626EEB626F757008757100E56C256CF56CE56D33F56DE526
:20150B006E33F56EE56F33F56FE56E30E0187421656CF87410656DF9AA6EAB6F886C896D8D
:1F152B00756E00756F00157074FFB570021571E570457170BF1C808B856C82856D8322CA
:20154A007A10E4FBFCE58225E0F582E58333F583EB33FBEC33FCEB956BF5F0EC956C4006EF
:09156A00FCABF0438201DADD2242
:20157300121616BC0003021798EF60FA30D502B2D1E583B4FF030217AEE582B4FF030217BC
:20159300AE258340072482400B02179824831450030217AEF582EA8DF0A4A8F0EA8EF0A4FE
:2015B30028F8E435F0F9EB8DF0A428E935F0F9E433CA8FF0A429F9EA35F0FAEBF88EF0A487
:2015D30029F9EA35F0FAE433FBEC8DF0A429F9EA35F0FAE43BFBE88FF0A42AFAEB35F0FB2F
:2015F300E433CCFD8EF0A42AFAEB35F0FBE43CFCED8FF0A42BFBEC35F0FC20E7031216FE18
:0316130002177744
:20161600AA82AB83A2F73392D1F5826002D2F7ACF0E58124F9F8E6FD08E6FE0886F008E637
:0E163600A2F73392D5F5836002D2F7AFF0220F
:20164400FB7A20E4FCFDFEFFE5822582F582E58333F583E5F033F5F0EB33FB4017DAE980DF
:2016640042E5822582F582E58333F583E5F033F5F0EB33FBEC33FCED33FDEE33FEEF33FF0E
:20168400EC956BED956CEE956DEF956E4013EC956BFCED956CFDEE956DFEEF956EFF4382C0
:0516A40001DABEEB229B
:06021000E4787FF6D8FD42
:2016A900AD82AE83AFF08D708E718F72856B73856C74856D75A86EA96F8803890418B8FFE1
:2016C9000119EB4C60258573828574838575F0121889FCA38582738583748D828E838FF064
:1516E900EC121744A3AD82AE8380CE8570828571838572F02249
:2016FE007804EC7011E58224F8500AF582E4C9CACBFCD8EF22EC7820058220E713D58201EB
:13171E0022C3E933F9EA33FAEB33FBEC33FCD8EA158222F8
:2001EE00790AE94400601B7A01901964782A75A000E493F2A308B8000205A0D9F4DAF27506
:02020E00A0FF4F
:13173100FCABF0AA83A982749EC2D1F5821216FE021777E4
:1B17440020F71130F6138883A88220F509F6A8837583002280FEF280F5F022A4
:200216007800E84400600A790175A000E4F309D8FC7829E84400600C7901900001E4F0A3BC
:04023600D8FCD9FA1D
:0D175F00AC83AB827A007900748E0218AE64
:0B176C007F8E1218D8F58385F08222D2
:20177700B98003EA13B34010EA2401FAE43BFBE43CFC50047C800582BC000EBB000BBA00B6
:2017970008E4F5F0F583F58222A2D1E582138CF092F78B838A8222E4F583F58275F080F476
:0F17B700A2D11322E4F583F58275F0C0747F226E
:2017C60012161630D502B2D1BF0009BC00030217BB0217AEBC0003021798E583B4FF0BE59E
:2017E60082B4FF030217BB021798E582B4FF030217AEC395835007247F400B0217982480CD
:201806001450030217AEF582C3ED9AEE9BEF9C40111582C3EA33F9EB33FAEC33FBE433FCB9
:201826008005E4CCCBCAF9C08275F019C3E99DEA9EEB9FEC9400D5F002802D400EE99DF903
:20184600EA9EFAEB9FFBEC9400FCC3B3E833F8E58233F582E58333F583C3E933F9EA33FA63
:20186600EB33FBEC33FC80C4B3E4F938FAE43582FBE43583FCD082500405827C801216FEAB
:0318860002178FB7
:0D01E10075817F1218D2E58260030201DEF5
:1C18890020F71430F6148883A88220F507E6A88375830022E280F7E49322E0226E
:2018A500FCABF0AA83A982749EF582C2D1EC30E716D2D1E9F42401F9EAF43400FAEBF43442
:0D18C50000FBECF43400FC1216FE02177755
:0418D20075820022F9
:2018D6007F9E12194030D103021798C3EF9582500974FFF5F0F583F5822279001218FD8901
:0718F600828A838BF0EC22D3
:2018FD006040F82582500274FFF582E824F8501ECCCBCAF9E4CC24F85014CBCAF9E4CB24F3
:20191D00F8500BCAF9E4CA24F8500379002224086010F8C3EC13FCEB13FBEA13FAE913F9A5
:03193D00D8F122BC
:12194000AA82AB83A2F73392D1F5826002D2F7ACF022AC
:00000001FF
